0029029070999991901010106004+64333+023450FM-12+000599999V0202701N015919999999N0000001N9-00781+99999102001ADDGF108991999999999999999999
0029029070999991901010113004+64333+023450FM-12+000599999V0202901N008219999999N0000001N9-00721+99999102001ADDGF104991999999999999999999
0029029070999991901010120004+64333+023450FM-12+000599999V0209991C000019999999N0000001N9-00941+99999102001ADDGF108991999999999999999999
0029029070999991901010206004+64333+023450FM-12+000599999V0201801N008219999999N0000001N9-00611+99999101831ADDGF108991999999999999999999
0029029070999991901010213004+64333+023450FM-12+000599999V0201801N009819999999N0000001N9-00561+99999101761ADDGF108991999999999999999999
0029029070999991901010220004+64333+023450FM-12+000599999V0201801N009819999999N0000001N9-00281+99999101751ADDGF108991999999999999999999
0029029070999991901010306004+64333+023450FM-12+000599999V0202001N009819999999N0000001N9-00671+99999101701ADDGF106991999999999999999999
0029029070999991901010313004+64333+023450FM-12+000599999V0202301N011819999999N0000001N9-00331+99999101741ADDGF108991999999999999999999
0029029070999991901010320004+64333+023450FM-12+000599999V0202301N011819999999N0000001N9-00281+99999101741ADDGF108991999999999999999999
0029029070999991901010406004+64333+023450FM-12+000599999V0209991C000019999999N0000001N9-00331+99999102311ADDGF108991999999999999999999
0029029070999991901010413004+64333+023450FM-12+000599999V0202301N008219999999N0000001N9-00441+99999102261ADDGF108991999999999999999999
0029029070999991901010420004+64333+023450FM-12+000599999V0202001N011819999999N0000001N9-00391+99999102231ADDGF108991999999999999999999
0029029070999991901010506004+64333+023450FM-12+000599999V0202701N004119999999N0000001N9+00001+99999101821ADDGF104991999999999999999999
0029029070999991901010513004+64333+023450FM-12+000599999V0202701N002119999999N0000001N9+00061+99999102591ADDGF104991999999999999999999
0029029070999991901010520004+64333+023450FM-12+000599999V0202301N004119999999N0000001N9+00001+99999102671ADDGF104991999999999999999999
0029029070999991901010606004+64333+023450FM-12+000599999V0202701N006219999999N0000001N9+00061+99999102751ADDGF103991999999999999999999
0029029070999991901010613004+64333+023450FM-12+000599999V0202701N006219999999N0000001N9+00061+99999102981ADDGF100991999999999999999999
0029029070999991901010620004+64333+023450FM-12+000599999V0203201N002119999999N0000001N9-00111+99999103191ADDGF100991999999999999999999
0029029070999991901010706004+64333+023450FM-12+000599999V0209991C000019999999N0000001N9-00331+99999103341ADDGF100991999999999999999999
0029029070999991901010713004+64333+023450FM-12+000599999V0209991C000019999999N0000001N9-00501+99999103321ADDGF100991999999999999999999
